:100000000C947E000C94BE060C9497060C94A600EB
:100010000C94A6000C94A6000C94A6000C94A600C8
:100020000C94A6000C94A6000C94A6000C94A600B8
:100030000C94A6000C94A6000C94A6000C94A600A8
:100040000C944D060C94A6000C941B060C94F5051C
:100050000C94A6000C94A6000C94A6000C94A60088
:100060000C94A6000C94A6007E0AC60AD50AEA0AD9
:10007000F10AF70A020B090B07634236B79BD8A7B0
:100080001A39685618AEBAAB558C1D3CB7CC5763BD
:10009000BD6DEDFD753EF6177231BF000000803F6B
:1000A00000000000240027002A00000000002500B6
:1000B00028002B0000000000230026002900040473
:1000C0000404040404040202020202020303030300
:1000D00003030102040810204080010204081020DC
:1000E00001020408102000000008000201000003C3
:1000F00004070000000000000000E50611241FBEF8
:10010000CFEFD8E0DEBFCDBF22E0A8E6B1E001C06E
:100110001D92A23BB207E1F711E0A0E0B1E0E0E6FA
:10012000F1E202C005900D92A836B107D9F710E0B0
:10013000CEE7D0E004C02197FE010E948D0ECD379E
:10014000D107C9F70E94E2080C94AE100C9400008D
:10015000809168018F5F809368010895CF92DF924C
:10016000EF92FF920F931F93CF93DF936C017A016D
:100170008B01C0E0D0E0CE15DF0589F0D8016D918C
:100180008D01D601ED91FC910190F081E02DC60129
:100190000995892B11F47E0102C02196ECCFC7018D
:1001A000DF91CF911F910F91FF90EF90DF90CF9053
:1001B0000895089580E090E00895FC01538D448DEA
:1001C000252F30E0842F90E0821B930B541710F002
:1001D000CF96089501970895FC01918D828D98170F
:1001E00061F0828DDF01A80FB11D5D968C91928D1B
:1001F0009F5F9F73928F90E008958FEF9FEF089518
:10020000FC01918D828D981731F0828DE80FF11DE0
:10021000858D90E008958FEF9FEF0895FC01918DFB
:10022000228D892F90E0805C9F4F821B91098F73F4
:100230009927089587E791E00E940E0121E0892B1C
:1002400009F420E0822F0895FC01848DDF01A80FBE
:10025000B11DA35ABF4F2C91848D90E001968F73EE
:100260009927848FA689B7892C93A089B1898C910D
:1002700080648C93938D848D981306C00288F389D3
:10028000E02D80818F7D80830895EF92FF920F9300
:100290001F93CF93DF93EC0181E0888F9B8D8C8D32
:1002A000981305C0E889F989808185FD24C0F62E60
:1002B0000B8D10E00F5F1F4F0F731127E02E8C8DF9
:1002C000E8120CC00FB607FCFACFE889F9898081E3
:1002D00085FFF5CFCE010E942401F1CF8B8DFE0169
:1002E000E80FF11DE35AFF4FF0820B8FEA89FB897B
:1002F0008081806207C0EE89FF896083E889F9897F
:1003000080818064808381E090E0DF91CF911F91B4
:100310000F91FF90EF900895CF93DF93EC01888DBC
:100320008823C9F0EA89FB89808185FD05C0A889F9
:10033000B9898C9186FD0FC00FB607FCF5CF80817F
:1003400085FFF2CFA889B9898C9185FFEDCFCE01C9
:100350000E942401E7CFDF91CF91089580E090E0E3
:10036000892B29F00E941A0181110C940000089534
:10037000833081F028F4813099F08230A1F0089523
:100380008730A9F08830B9F08430D1F480918000B2
:100390008F7D03C0809180008F77809380000895C7
:1003A00084B58F7702C084B58F7D84BD0895809118
:1003B000B0008F7703C08091B0008F7D8093B00034
:1003C0000895CF93DF93282F30E0F901EA51FF4FD2
:1003D0008491F901EE52FF4FD491F901E254FF4F9D
:1003E000C491CC2391F081110E94B801EC2FF0E070
:1003F000EE0FFF1FEC54FF4FA591B491EC91ED234C
:1004000081E090E021F480E002C080E090E0DF91A4
:10041000CF9108951F93CF93DF93282F30E0F901F8
:10042000EA51FF4F8491F901EE52FF4FD491F90147
:10043000E254FF4FC491CC23C9F0162F81110E94C2
:10044000B801EC2FF0E0EE0FFF1FE655FF4FA5912E
:10045000B4918FB7F894111105C09C91ED2FE095E0
:10046000E92302C0EC91ED2BEC938FBFDF91CF918C
:100470001F910895CF93DF9390E0FC01EE52FF4F60
:100480002491FC01E254FF4F8491882361F190E0B4
:10049000880F991FFC01E056FF4FC591D491FC01D4
:1004A000E655FF4FA591B491611109C09FB7F8942B
:1004B0008881209582238883EC912E230BC06230A3
:1004C00061F49FB7F8943881822F809583238883C5
:1004D000EC912E2B2C939FBF06C08FB7F894E88128
:1004E0002E2B28838FBFDF91CF9108951F93CF9339
:1004F000DF93182FEB0161E00E943A02209711F47C
:1005000060E004C0CF3FD10539F461E0812FDF9175
:10051000CF911F910C940A02E12FF0E0EA51FF4FB6
:10052000E491E330F9F048F4E130B9F0E230A1F5BC
:1005300084B5806284BDC8BD34C0E730E9F0E830DE
:1005400019F1E43049F58091800080628093800049
:10055000D0938B00C0938A0024C084B5806884BD8A
:10056000C7BD1FC080918000806880938000D093B9
:100570008900C093880015C08091B0008068809386
:10058000B000C093B3000DC08091B0008062809332
:10059000B000C093B40005C0C038D1050CF0B5CF91
:1005A000AFCFDF91CF911F9108953FB7F89480911D
:1005B0006E0190916F01A0917001B091710126B50B
:1005C000A89B05C02F3F19F00196A11DB11D3FBF8B
:1005D000BA2FA92F982F8827820F911DA11DB11D19
:1005E000BC01CD0142E0660F771F881F991F4A9515
:1005F000D1F708958F929F92AF92BF92CF92DF92E0
:10060000EF92FF926B017C010E94D5024B015C01CD
:10061000C114D104E104F104F1F00E94D502DC011F
:10062000CB0188199909AA09BB09883E9340A10505
:10063000B10570F321E0C21AD108E108F10888EE93
:10064000880E83E0981EA11CB11CC114D104E104E2
:10065000F10419F7DDCFFF90EF90DF90CF90BF90BE
:10066000AF909F908F9008952FB7F89460916A0192
:1006700070916B0180916C0190916D012FBF089575
:100680000F931F930E94340360937F017093800146
:100690008093810190938201E0917701F09178013C
:1006A0000284F385E02D87E791E0099597FF1FC04D
:1006B0000E94340300917F011091800120918101FB
:1006C00030918201DC01CB01801B910BA20BB30B9B
:1006D00000917B0110917C0120917D0130917E0180
:1006E00080179107A207B307B8F28FEF9FEF1F9112
:1006F0000F9108950895CF92DF92EF92FF92CF93DA
:10070000DF93EC01288139812130310591F174F4B6
:10071000232B09F044C02A853B854C855D856A8979
:100720007B898C899D890E949A0C3CC022303105BE
:1007300029F12330310599F52A853B854C855D8566
:100740006A897B898C899D890E949A0C6B017C0146
:1007500020E034E244E759E46A817B818C819D8109
:100760000E94070D9B01AC01C701B6010E94070D55
:1007700019C06A857B858C859D8514C020E034E294
:1007800044E759E46A817B818C819D810E94070D39
:100790002A853B854C855D850E94A50B03C060E0E2
:1007A00070E0CB01DF91CF91FF90EF90DF90CF9081
:1007B0000895CF93DF93009779F0FC01019000201A
:1007C000E9F73197AF01481B590BBC0187E791E06E
:1007D0000E94AE00EC0102C0C0E0D0E042E050E078
:1007E00065E271E087E791E00E94AE008C0F9D1FEB
:1007F000DF91CF910895CF92DF92EF92FF92CF9346
:10080000DF93C82F60E08CE00E940A0261E08DE077
:100810000E940A020E9434036B017C016093730101
:10082000709374018093750190937601D0E086E017
:100830000E94E101892B09F5BE0189E00E94760240
:100840000E943403DC01CB018C199D09AE09BF095C
:100850004091090150910A0160910B0170910C01C6
:10086000481759076A077B0710F760E070E089E0D6
:100870000E94760288E291E007C060E070E089E0C3
:100880000E9476028CE291E0DF91CF91FF90EF9091
:10089000DF90CF900C94D903CF92DF92EF92FF922A
:1008A0001F93CF93DF93C82F162F60E08CE00E9438
:1008B0000A0261E08DE00E940A020E9434036B018B
:1008C0007C01609373017093740180937501909320
:1008D0007601D0E085E00E94E101892B19F5BE0187
:1008E00089E00E9476020E943403DC01CB018C195E
:1008F0009D09AE09BF094091090150910A0160911B
:100900000B0170910C01481759076A077B0710F714
:1009100060E070E089E00E947602111115C088E263
:1009200091E009C060E070E089E00E947602111158
:100930000BC08CE291E0DF91CF911F91FF90EF907F
:10094000DF90CF900C94D903DF91CF911F91FF904E
:10095000EF90DF90CF900895CF93DF93FC01448117
:1009600055814115510599F0EC01808191814150EB
:10097000510955834483BC016F5F7F4F0E949F10D4
:10098000E881F9818C819D81E80FF91F1082DF9148
:10099000CF9108950E948A10FC0180819181009777
:1009A00011F00C942C0B60E070E0CB0108950F93D4
:1009B0001F93CF93DF93EC0188819981009729F0F1
:1009C0002A813B812617370788F48B016F5F7F4FA1
:1009D0000E94C00F009761F0998388831B830A836C
:1009E0002C813D81232B11F4FC01108281E001C098
:1009F00080E0DF91CF911F910F910895CF92DF9208
:100A0000EF92FF920F931F93CF93DF9300D0CDB758
:100A1000DEB78C01C62EFC01118210821382128275
:100A20001582148260E070E00E94D704F8012081F2
:100A3000318181110EC02115310519F0C9010E94C3
:100A4000280FF801118210821582148213821282FB
:100A500008C0F8011582148267E271E0C9010E94A2
:100A600098100E9440030C2C000CDD0897FD23C059
:100A70008C159D0501F189831A82F801E480F580C7
:100A8000FFEFEF1AFF0AB701C8010E94D7048823BD
:100A900079F0F8012081318184819581BE016F5FF9
:100AA0007F4F820F931F0E949810F801F582E48215
:100AB0000E944003DBCFC8010F900F90DF91CF91D0
:100AC0001F910F91FF90EF90DF90CF9008954F927C
:100AD0005F926F927F928F929F92AF92BF92CF92CE
:100AE000DF92EF92FF92CF93DF93EC012A013B015B
:100AF0000E94D5026B017C018A8D9B8DAC8DBD8DD2
:100B0000A7019601281B390B4A0B5B0BCA01B901DF
:100B10000E946A0B9B01AC016E8B7F8B888F998F33
:100B2000CA8EDB8EEC8EFD8E8A849B84AC84BD8461
:100B30008E869F86A88AB98A4A8A5B8A6C8A7D8A51
:100B40006A817B818C819D810E94070D9B01AC0194
:100B50006E837F838887998760E070E080E89FEBF1
:100B60000E94070D0E94810D6B017C019B01AC016D
:100B700060E070E080E89FE30E949A0CA30192017C
:100B80000E94A50B2B013C01A5019401C701B601F0
:100B90000E94A50B9B01AC01C301B2010E949B0CFA
:100BA0006A877B878C879D87CE01DF91CF91FF90ED
:100BB000EF90DF90CF90BF90AF909F908F907F90FD
:100BC0006F905F904F900C947B03CF93DF93EC0179
:100BD0000E946705AB01BC016E96CE010E946705BD
:100BE000CE01DF91CF910C947B031F920F920FB631
:100BF0000F9211242F933F934F935F936F937F93A3
:100C00008F939F93AF93BF93EF93FF9387E791E009
:100C10000E942401FF91EF91BF91AF919F918F911D
:100C20007F916F915F914F913F912F910F900FBEE8
:100C30000F901F9018951F920F920FB60F921124CC
:100C40002F938F939F93EF93FF93E0918701F09100
:100C500088018081E0918D01F0918E0182FD12C0AA
:100C60009081809190018F5F8F7320919101821705
:100C700051F0E0919001F0E0E958FE4F958F80939C
:100C8000900101C08081FF91EF919F918F912F91F1
:100C90000F900FBE0F901F9018951F920F920FB6D6
:100CA0000F9211242F933F938F939F93AF93BF93F2
:100CB00080916A0190916B01A0916C01B0916D01DE
:100CC0003091690123E0230F2D3720F40196A11DF7
:100CD000B11D05C026E8230F0296A11DB11D20936A
:100CE000690180936A0190936B01A0936C01B093AA
:100CF0006D0180916E0190916F01A0917001B09192
:100D000071010196A11DB11D80936E0190936F0139
:100D1000A0937001B0937101BF91AF919F918F919A
:100D20003F912F910F900FBE0F901F9018951F921B
:100D30000F920FB60F9211242F933F934F935F930F
:100D40006F937F938F939F93AF93BF93EF93FF9393
:100D5000E0910201F09103010995FF91EF91BF919C
:100D6000AF919F918F917F916F915F914F913F9143
:100D70002F910F900FBE0F901F9018951F920F92FA
:100D80000FB60F9211242F933F934F935F936F935E
:100D90007F938F939F93AF93BF93EF93FF93E091D4
:100DA0000001F09101010995FF91EF91BF91AF9181
:100DB0009F918F917F916F915F914F913F912F9173
:100DC0000F900FBE0F901F9018952F923F924F9249
:100DD0005F926F927F928F929F92AF92BF92CF92CB
:100DE000DF92EF92FF920F931F93CF93DF9300D088
:100DF00000D0CDB7DEB7E7E7F1E01382128288EECC
:100E000093E0A0E0B0E084839583A683B78387E175
:100E100091E09183808385EC90E09587848784ECD2
:100E200090E09787868780EC90E0918B808B81ECB7
:100E300090E0938B828B82EC90E0958B848B86EC98
:100E400090E0978B868B118E128E138E148E80E914
:100E5000A82E82E0B82E01E010E0F5011183008396
:100E60009CEBC92E9CE6D92E9BE1E92E98E4F92E45
:100E7000C282D382E482F582128613861486158696
:100E800016861786108A118A128A138A148A158A7E
:100E90000E94D502F501628F738F848F958F109316
:100EA000190200931802C0921A02D0921B02E0921B
:100EB0001C02F0921D021092220210922302109244
:100EC00024021092250210922602109227021092FC
:100ED00028021092290210922A0210922B021092DC
:100EE0002C0210922D020E94D50260933202709360
:100EF00033028093340290933502109337020093AB
:100F00003602C0923802D0923902E0923A02F09250
:100F10003B02109240021092410210924202109243
:100F2000430210924402109245021092460210921F
:100F30004702109248021092490210924A021092FF
:100F40004B020E94D502609350027093510280932D
:100F500052029093530221E6422E22E5522E21E9BD
:100F6000622E28E4722E40921A0250921B02609266
:100F70001C0270921D024092380250923902609217
:100F80003A0270923B0210922A0210922B021092A7
:100F90002C0210922D02109226021092270210921B
:100FA000280210922902109222021092230210921B
:100FB00024021092250210924802109249021092C7
:100FC0004A0210924B021092440210924502109273
:100FD0004602109247021092400210924102109273
:100FE000420210924302109355020093540236E5D8
:100FF000832E32E0932EF401C082D182E282F3820A
:101000004EE552E0FA01108211821282138222E62A
:1010100032E0F901108211821282138266E6262ED6
:1010200062E0362EF10110821182128213822B832C
:101030003C8349835A830E94D50260936E02709369
:101040006F02809370029093710210937302009369
:10105000720274E7A72E72E0B72EF501C082D1822A
:10106000E282F3820CE712E0F80110821182128210
:101070001382E0E8EE2EE2E0FE2EF70110821182EC
:1010800012821382F4E8CF2EF2E0DF2EF6011082F6
:101090001182128213820E94D50260938C02709397
:1010A0008D0280938E0290938F02F40140825182D0
:1010B00062827382F5014082518262827382F10101
:1010C00010821182128213822B813C81F9011082DD
:1010D00011821282138249815A81FA01108211828F
:1010E00012821382F6011082118212821382F7019A
:1010F0001082118212821382F801108211821282F0
:10110000138280E090E0A0E8BFE3E4E1F2E08083B6
:101110009183A283B38340921A0250921B02609281
:101120001C0270921D024092380250923902609265
:101130003A0270923B0210922A0210922B021092F5
:101140002C0210922D021092260210922702109269
:101150002802109229021092220210922302109269
:101160002402109225021092480210924902109215
:101170004A0210924B0210924402109245021092C1
:1011800046021092470210924002109241021092C1
:101190004202109243020F900F900F900F90DF9138
:1011A000CF911F910F91FF90EF90DF90CF90BF9064
:1011B000AF909F908F907F906F905F904F903F90F7
:1011C0002F900895CF93DF93CDB7DEB72C970FB64E
:1011D000F894DEBF0FBECDBF789484B5826084BD25
:1011E00084B5816084BD85B5826085BD85B581602B
:1011F00085BD80916E00816080936E0010928100A9
:101200008091810082608093810080918100816063
:101210008093810080918000816080938000809124
:10122000B10084608093B1008091B00081608093B0
:10123000B00080917A00846080937A0080917A0077
:10124000826080937A0080917A00816080937A0036
:1012500080917A00806880937A001092C10061E0EA
:101260008AE00E943A0261E087E00E943A0261E06F
:1012700088E00E943A0261E089E00E943A0261E05F
:101280008CE00E943A0261E08DE00E943A0260E048
:101290008BE00E943A0260E08EE00E943A0262E037
:1012A00082E00E943A0208EA10E0109301010093E4
:1012B0000001809169008C7F826080936900E89AC8
:1012C00062E083E00E943A0210930301009302015E
:1012D00080916900837F886080936900E99A61E06A
:1012E00087E00E940A0260E088E00E940A0260E053
:1012F00082E80E944C048DEC9CECACECBDE3809346
:10130000140290931502A0931602B093170280ED79
:1013100093E8A8EEB6E480931A0290931B02A09380
:101320001C02B0931D028093380290933902A0935F
:101330003A02B0933B028093560290935702A093D7
:101340005802B09359028093740290937502A0934F
:101350007602B0937702E0918701F091880182E0F4
:101360008083E0918301F09184011082E0918501F6
:10137000F09186018FEC808310928F01E0918B01B8
:10138000F0918C0186E08083E0918901F0918A01DF
:10139000808180618083E0918901F0918A01808160
:1013A00088608083E0918901F0918A018081806862
:1013B0008083E0918901F0918A0180818F7D808313
:1013C00082E391E00E94D90311E000E484E00E94EE
:1013D000E101892B09F42EC18091720181112AC18A
:1013E00068EC70E080E090E00E94FA0287E491E00F
:1013F0000E94D9031093720100937C0080917A00BF
:10140000806480937A0080917A0086FDFCCF6091A1
:1014100078008091790070E0782B072E000C880B03
:10142000990B0E946A0BAB01BC0180E992E00E941B
:10143000670580E992E00E947B036B017C01AB01B0
:10144000BC0188E192E00E94E505A7019601C70171
:10145000B6010E94A50BAB01BC0184E592E00E949D
:10146000E50586E392E00E947B030E94B30D209184
:101470000701309108012617370758F080910401C1
:10148000811107C089E391E00E94D9031093040100
:101490000BC08091050190910601820F931F681780
:1014A000790710F01092040187E791E00E940E0185
:1014B000181619060CF0BBC060E2CE0107960E9418
:1014C000FE046AE0CE0101960E94FE04CE0107965A
:1014D0000E94AC04CE0101960E94AC04CE01079696
:1014E0000E94CC04FB013197E830F10508F097C069
:1014F000EC5CFF4FCE0101960C948D0E0E94CC0443
:10150000B62EE12CF12CC62ED12C21E0C21AD10826
:10151000EB14C0F56FEF70E08AE00E9476020E9443
:1015200034032B013C016093730170937401809329
:101530007501909376018BE00E94E101892BA9F45B
:101540000E943403DC01CB0184199509A609B7096F
:1015500081349F41A105B10570F360E070E08AE03D
:101560000E94760288E291E032C0EC14FD0434F46B
:1015700068EC70E080E090E00E94FA028FEFE81AD9
:10158000F80AC6CF60E070E08AE01DC00E94CC047B
:10159000F62E862F0E94FB0364EF71E080E090E05E
:1015A0000E94FA0261E08F2D19C00E94CC04F62E31
:1015B00061E08CE00E940A0260E08DE00E940A0275
:1015C0006F2D70E089E00E9476028CE291E00E942B
:1015D000D90325C00E94CC04862F60E00E944C04F1
:1015E0001EC00E94CC04862F0E94FB0318C00E94DC
:1015F000CC046093090170930A0180930B019093CE
:101600000C010DC00E94CC04709308016093070187
:1016100006C00E94CC047093060160930501898185
:101620009A810E94280F8F8198850E94280F0E941E
:10163000AE01CCCE84E00E94E101892B09F0DCCE22
:1016400080917201882309F4D7CE87E591E00E944A
:10165000D90310927201D0CE1F93FC0199278827DD
:10166000BC01E89411911032E9F3193010F01E30EA
:10167000C8F31B3251F01D3249F4689406C00E9431
:10168000530B610F711D811D911D119110531A3063
:10169000B0F33EF490958095709561957F4F8F4F94
:1016A0009F4F1F910895592F482F372F262F660FD0
:1016B000771F881F991F660F771F881F991F620F5A
:1016C000731F841F951F660F771F881F991F08952A
:1016D000E89409C097FB3EF49095809570956195CC
:1016E0007F4F8F4F9F4F9923A9F0F92F96E9BB2782
:1016F0009395F695879577956795B795F111F8CFFE
:10170000FAF4BB0F11F460FF1BC06F5F7F4F8F4F68
:101710009F4F16C0882311F096E911C0772321F05E
:101720009EE8872F762F05C0662371F096E8862FF6
:1017300070E060E02AF09A95660F771F881FDAF74D
:10174000880F9695879597F908950E94B80B0C9489
:10175000290C0E941B0C38F00E94220C20F09523CB
:1017600011F00C94120C0C94180C11240C945D0CB8
:101770000E943A0C70F3959FC1F3950F50E0551FEE
:10178000629FF001729FBB27F00DB11D639FAA27D6
:10179000F00DB11DAA1F649F6627B00DA11D661F25
:1017A000829F2227B00DA11D621F739FB00DA11D46
:1017B000621F839FA00D611D221F749F3327A00D00
:1017C000611D231F849F600D211D822F762F6A2F9C
:1017D00011249F5750409AF0F1F088234AF0EE0F01
:1017E000FF1FBB1F661F771F881F91505040A9F72E
:1017F0009E3F510580F00C94120C0C945D0C5F3FE1
:10180000E4F3983ED4F3869577956795B795F79569
:10181000E7959F5FC1F7FE2B880F911D96958795E1
:1018200097F9089597F99F6780E870E060E0089560
:101830009FEF80EC089500240A94161617061806E8
:101840000906089500240A941216130614060506C4
:101850000895092E0394000C11F4882352F0BB0F55
:1018600040F4BF2B11F460FF04C06F5F7F4F8F4FB8
:101870009F4F089557FD9058440F551F59F05F3FF3
:1018800071F04795880F97FB991F61F09F3F79F0A2
:1018900087950895121613061406551FF2CF469524
:1018A000F1DF08C0161617061806991FF1CF8695A6
:1018B0007105610508940895E894BB27662777278A
:1018C000CB0197F908952F923F924F925F926F92BA
:1018D0007F928F929F92AF92BF92CF92DF92EF92C0
:1018E000FF920F931F93CF93DF93CDB7DEB7CA1B41
:1018F000DB0B0FB6F894DEBF0FBECDBF09942A886C
:10190000398848885F846E847D848C849B84AA8413
:10191000B984C884DF80EE80FD800C811B81AA81A0
:10192000B981CE0FD11D0FB6F894DEBF0FBECDBF6B
:10193000ED0108955058BB27AA270E94B20C0C94C1
:10194000290C0E941B0C38F00E94220C20F039F464
:101950009F3F19F426F40C94180C0EF4E095E7FB65
:101960000C94120CE92F0E943A0C58F3BA17620734
:1019700073078407950720F079F4A6F50C945C0CA6
:101980000EF4E0950B2EBA2FA02D0B01B90190019A
:101990000C01CA01A0011124FF27591B99F0593FDE
:1019A00050F4503E68F11A16F040A22F232F342F26
:1019B0004427585FF3CF469537952795A795F04074
:1019C0005395C9F77EF41F16BA0B620B730B840B89
:1019D000BAF09150A1F0FF0FBB1F661F771F881F41
:1019E000C2F70EC0BA0F621F731F841F48F4879599
:1019F00077956795B795F7959E3F08F0B0CF93958B
:101A0000880F08F09927EE0F9795879508950E9403
:101A10001B0D0C94290C0E94220C58F00E941B0CE8
:101A200040F029F45F3F29F00C94120C51110C94F2
:101A30005D0C0C94180C0E943A0C68F39923B1F3D6
:101A4000552391F3951B550BBB27AA2762177307E4
:101A5000840738F09F5F5F4F220F331F441FAA1F78
:101A6000A9F335D00E2E3AF0E0E832D09150504034
:101A7000E695001CCAF72BD0FE2F29D0660F771FE2
:101A8000881FBB1F261737074807AB07B0E809F0C8
:101A9000BB0B802DBF01FF2793585F4F3AF09E3F4D
:101AA000510578F00C94120C0C945D0C5F3FE4F33C
:101AB000983ED4F3869577956795B795F7959F5F90
:101AC000C9F7880F911D9695879597F90895E1E0DC
:101AD000660F771F881FBB1F621773078407BA073B
:101AE00020F0621B730B840BBA0BEE1F88F7E09596
:101AF000089529F416F00C94120C0C945C0C0C94C0
:101B0000180C0E94420CA8F39638A0F707F80F9221
:101B1000E8942BE33AEA48EB5FE70E94BB0B0F9295
:101B20000F920F924DB75EB70F920E944B0EE8E7EF
:101B3000F0E00E94E20D4F915F91EF91FF91E595EA
:101B4000EE1FFF1F49F0FE57E0684427EE0F441FC9
:101B5000FA95E1F74195550B0E94150E0F9007FE7F
:101B60000C94090E08950E94420C88F09F5798F03B
:101B7000B92F9927B751B0F0E1F0660F771F881F92
:101B8000991F1AF0BA95C9F714C0B13091F00E94AC
:101B90005C0CB1E008950C945C0C672F782F8827BB
:101BA000B85F39F0B93FCCF3869577956795B395D3
:101BB000D9F73EF490958095709561957F4F8F4F42
:101BC0009F4F0895DF93CF931F930F93FF92EF9250
:101BD000DF927B018C01689406C0DA2EEF010E942F
:101BE000B80BFE01E894A591259135914591559149
:101BF000A6F3EF010E94B20CFE019701A801DA944E
:101C000069F7DF90EF90FF900F911F91CF91DF91D7
:101C100008959B01AC0160E070E080E89FE30C94C4
:101C2000070D0C94120C0C947F0E0E94420CD8F3FA
:101C30009923C9F3940F511DA3F39150504094F090
:101C400059F0882332F0660F771F881F915050405B
:101C5000C1F79E3F51052CF7880F911D96958795EA
:101C600097F908955F3FACF0983E9CF0BB278695AE
:101C700077956795B79508F4B1609395C1F7BB0F59
:101C800058F711F460FFE8CF6F5F7F4F8F4F9F4F82
:101C9000E3CF0C945D0CFA01DC01AA0FBB1F9B0182
:101CA000AC01BF5728F4222733274427507820C09F
:101CB000B75190F4AB2F0024469537952795011C1A
:101CC000A395D2F3002071F0220F331F441FB39568
:101CD000DAF30ED00C949A0C61307105A0E88A07F3
:101CE000B94630F49B01AC016627772788279078A6
:101CF000309621F0208331834283538308959F3FA0
:101D000031F0915020F4879577956795B795880FB6
:101D1000911D9695879597F90895EE0FFF1F0590F1
:101D2000F491E02D0994CF93DF938230910510F464
:101D300082E090E0E091B002F091B10220E030E06A
:101D4000C0E0D0E0309711F1408151814817590728
:101D5000C0F04817590761F482819381209719F0E8
:101D60009B838A832BC09093B1028093B00226C0DC
:101D70002115310519F04217530718F49A01BE01D5
:101D8000DF01EF010280F381E02DDCCF2115310569
:101D900009F1281B390B2430310590F412968D91EE
:101DA0009C9113976115710521F0FB019383828348
:101DB00004C09093B1028093B002FD01329644C0FA
:101DC000FD01E20FF31F81939193225031092D936E
:101DD0003C933AC02091AE023091AF02232B41F4E4
:101DE00020910F01309110013093AF022093AE0289
:101DF00020910D0130910E012115310541F42DB7CF
:101E00003EB74091110150911201241B350BE09116
:101E1000AE02F091AF02E217F307A0F42E1B3F0BC6
:101E20002817390778F0AC014E5F5F4F241735074C
:101E300048F04E0F5F1F5093AF024093AE02819364
:101E4000919302C0E0E0F0E0CF01DF91CF910895DF
:101E50000F931F93CF93DF93009709F48CC0FC017D
:101E60003297138212820091B0021091B1020115D3
:101E7000110581F420813181820F931F2091AE02E0
:101E80003091AF022817390779F5F093AF02E0934C
:101E9000AE0271C0D80140E050E0AE17BF0750F469
:101EA00012962D913C911397AD012115310509F141
:101EB000D901F3CF9D01DA013383228360817181DF
:101EC000860F971F8217930769F4EC0128813981E7
:101ED000260F371F2E5F3F4F318320838A819B81DE
:101EE00093838283452B29F4F093B102E093B002EF
:101EF00042C01396FC93EE931297ED0149915991CC
:101F00009E01240F351FE217F30771F48081918140
:101F1000840F951F029611969C938E9382819381D4
:101F200013969C938E931297E0E0F0E0D8011296FE
:101F30008D919C911397009719F0F8018C01F6CFC1
:101F40008D919C9198012E5F3F4F820F931F20919E
:101F5000AE023091AF022817390769F4309729F49F
:101F60001092B1021092B00202C01382128210933A
:101F7000AF020093AE02DF91CF911F910F910895B0
:101F8000A0E0B0E0E6ECFFE00C94670CEC010097F9
:101F900021F4CB010E94930EB8C0FC01E60FF71F9D
:101FA0009C0122503109E217F30708F4ACC0D901B3
:101FB0000D911C91119706171707B0F00530110508
:101FC00008F49FC0C80104978617970708F499C0C2
:101FD00002501109061B170B019311936D937C930B
:101FE000CF010E94280F8DC05B01A01AB10A4C01DD
:101FF000800E911EA091B002B091B10240E050E07D
:10200000E12CF12C109709F44AC0A815B905D1F5B7
:102010006D907C901197630182E0C80ED11CCA14A8
:10202000DB0480F1A3014A195B096A0182E0C80E52
:10203000D11C1296BC9012971396AC91B5E0CB16BA
:10204000D10440F0B282A38351834083D9016D93C0
:102050007C930AC00E5F1F4FC301800F911FF901CF
:1020600091838083EB2DFA2FE114F10431F0D70135
:102070001396FC93EE93129744C0F093B102E09351
:10208000B0023FC08D919C9111974817590708F4F1
:10209000AC017D0112960D90BC91A02DB3CF809123
:1020A000AE029091AF0288159905E1F446175707E3
:1020B000C8F480910D0190910E01009741F48DB705
:1020C0009EB74091110150911201841B950BE817A6
:1020D000F907C8F4F093AF02E093AE02F9017183FF
:1020E00060830FC0CB010E94930E7C01009759F0D2
:1020F000A801BE010E948F10CE010E94280FC701C7
:1021000004C0CE0102C080E090E0CDB7DEB7EEE0C3
:102110000C94830C81E090E0F8940C94AE10FB01D9
:10212000DC0102C001900D9241505040D8F7089553
:10213000FB01DC0101900D920020E1F70895FB0105
:10214000DC014150504048F001900D920020C9F749
:1021500001C01D9241505040E0F70895F894FFCF20
:102160007A037A03019600EE02D00700000000B265
:10217000028000000000004501AE00DD008C010E71
:1021800001EC0000010D0A004E4F5420444F4E4513
:102190002100706172726F74006865616420746FF1
:1021A00075636865642100746F6E67756520707271
:1021B00065737365642100746F6E67756520726561
:0821C0006C6561736564210088
:00000001FF
